:020000040800F2
:1000000000000220550300085D0300086503000896
:10001000ED030008F5030008490400080000000093
:100020000000000000000000000000009D04000827
:10003000A504000800000000AD040008B504000895
:10004000CD040008CD040008CD040008CD0400084C
:10005000CD040008CD040008CD040008CD0400083C
:10006000CD040008CD040008CD040008CD0400082C
:10007000CD040008CD040008CD040008CD0400081C
:10008000CD040008CD040008CD040008CD0400080C
:10009000CD040008CD040008CD040008CD040008FC
:1000A000CD040008CD040008CD040008CD040008EC
:1000B000CD040008CD040008250C0008CD0400087C
:1000C000CD040008CD040008CD040008CD040008CC
:1000D000CD040008CD040008CD040008CD040008BC
:1000E000CD040008CD040008CD040008CD040008AC
:1000F000CD040008CD040008CD040008CD0400089C
:10010000CD040008CD040008CD040008CD0400088B
:10011000CD040008CD040008CD040008CD0400087B
:10012000CD040008CD040008CD040008CD0400086B
:100130003D0B0008CD040008CD040008CD040008E4
:10014000CD040008CD040008CD040008CD0400084B
:10015000CD040008CD040008CD040008CD0400083B
:10016000CD040008CD040008CD040008CD0400082B
:10017000CD040008CD040008CD04000800000000F4
:10018000CD040008CD04000880B596B000AF00F0A3
:10019000D9FB5F4B5F4A1A605F4B5E4A1A605F4B48
:1001A0007B6524E07B6D1A1D7A651B683B647B6D63
:1001B0001A1D7A651B68FB637B6D1A1D7A651B68C7
:1001C000BB633B6C7B63FB6B3B63BB6BFB623B6B5F
:1001D000BB6207E07A6B131D7B63BB6A191DB962B2
:1001E00012681A60FA6ABB6A9A42F3D800BF7B6D44
:1001F0004B4A9342D6D3464B1B684A4A934204D19A
:10020000454B1B68484A934200D0FEE7474B414AA2
:100210001A60474B3F4A1A60464B3B651AE03B6DFC
:100220001A1D3A651B68BB643B6D1A1D3A651B6855
:100230007B64BB6C7B627B6C3B627B6AFB6104E032
:10024000FB691A1DFA6100221A603A6AFB699A4238
:10025000F6D800BF3B6D384A9342E0D3334B1B685E
:10026000002B03D1324B1B68002B00D0FEE700F0BF
:1002700077FB3A1D07F108031146184600F0A8F96C
:100280002E4A2F4BD31A9B103B610023FB6007E0E3
:100290002B4AFB6852F823309847FB680133FB6018
:1002A0003A69FB689A42F3DC264A274BD31A9B1023
:1002B0003B610023FB6007E0234AFB6852F82330D0
:1002C0009847FB680133FB603A69FB689A42F3DCAC
:1002D00000BFBB687A681146184600F023FDF86439
:1002E0001A4A1B4BD31A9B10BB61BB697B6108E0A8
:1002F0007B69013B164A52F8233098477B69013BE2
:100300007B617B69002BF3DC00BFF86C00F01CF90B
:1003100000000020BABADECAB8060020D4040008E3
:10032000EC0400087856341232547698BC0600204B
:10033000C8080020EC040008FC040008FC040008C5
:10034000FC040008FC040008FC040008FC0400088D
:10035000FC04000880B500AFFFF716FF80B400AFC3
:1003600000BEFEE71EF0040F0CBFEFF30880EFF3B2
:1003700009807146524A104700BF80B588B002AF6D
:1003800078603960174B5B6B7B61164B9B6B3B61F5
:10039000144B9B6AFB60134B1B6B03F00203002B97
:1003A00010D0104BDB6A002B0CDA4BF6AB6178688F
:1003B00000F054FA0346002B04D00A4B4FF00042E1
:1003C000DA620CE0084800F079F93B6800933B6979
:1003D0007A69F968786800F0ABF900BEFEE7183773
:1003E000BD4680BD00ED00E08462000880B400AF2F
:1003F00000BEFEE71EF0040F0CBFEFF30880EFF322
:10040000098071462F4A104700BF80B588B002AFFF
:10041000786039600A4B5B6B7B61094B9B6B3B617E
:10042000074B9B6AFB60074800F048F93B68009364
:100430003B697A69F968786800F07AF900BEFEE7EE
:1004400000ED00E0946200081EF0040F0CBFEFF313
:100450000880EFF3098071461B4A104700BF80B542
:1004600088B002AF786039600A4B5B6B7B61094BE7
:100470009B6B3B61074B9B6AFB60074800F01EF9D2
:100480003B6800933B697A69F968786800F050F935
:1004900000BEFEE700ED00E0A062000880B400AFFF
:1004A00000BEFEE780B400AF00BEFEE780B400AF40
:1004B00000BEFEE780B400AF00BFBD4680BC704701
:1004C0007B0300080B0400085F04000880B400AF41
:0404D00000BEFEE785
:1004D4002067000800000020BC06002020670008F8
:1004E4000000001000000010BC060020CC08002012
:0804F4000000001000000010E0
:1005000080B586B002AFF860B9607A603B607B6806
:10051000002B01D0094A00E0094A7B68002B01D07A
:100520007B6800E0064B01930092BB68FA6839686B
:10053000044800F0C3F800F00DF800BFAC600008FC
:10054000BC600008C060000880B483B000AF786071
:10055000FEE7000080B500AF024800F0D1F80120AE
:10056000FFF7F2FF1C61000880B584B000AF78602F
:10057000144B1B68002B02D1124B134A1A60114B0B
:100580001B68FB607B68033323F003037B600D4B28
:100590001A687B6813440D4A934207D900F000FCA7
:1005A00003460C221A604FF0FF3306E0054B1A6831
:1005B0007B681344034A1360FB6818461037BD4636
:1005C00080BD00BFC0060020CC08002000FC012038
:1005D00080B483B000AF786039607B6801221A6014
:1005E0003B68034A1A6000BF0C37BD4680BC7047A9
:1005F0000400002080B582B000AF786039603968AF
:10060000786800F005F8034618460837BD4680BDF7
:10061000B0B58CB000AF78603960264B1B68002BFA
:100620001DD1254BBB600423FB6003233B610123E9
:10063000BB6207F108037B62BC6A7D6A20462946DB
:10064000ABBE04463C623B6AFB62FB6AB3F1FF3F10
:1006500002D14FF0FF3328E0164AFB6A1360154BB6
:100660001B68BB607B68FB603B683B610523FB61EB
:1006700007F10803BB61FC69BD6920462946ABBE92
:1006800004467C617B69FB62FB6AB3F1FF3F02D1E8
:100690004FF0FF3309E03B68FA6A9A4202D14FF00B
:1006A000FF3302E03A68FB6AD31A18463037BD467A
:1006B000B0BD00BFCC060020306100080FB480B58B
:1006C00082B000AF07F114033B603B683A698021B8
:1006D0000A4800F02DFB78607B68002B05DD7B6805
:1006E00019460648FFF786FF78607B68184608378A
:1006F000BD46BDE8804004B0704700BFD006002072
:1007000080B582B000AF7860786800F0D9FC03460D
:1007100019467868FFF76EFF01210448FFF76AFF6A
:10072000034618460837BD4680BD00BF3461000847
:1007300080B584B000AFF860B9607A603B6034483F
:10074000FFF7BCFFFB681B6819463248FFF7B6FF8E
:10075000FB685B6819463048FFF7B0FFFB689B6891
:1007600019462E48FFF7AAFFFB68DB6819462C489C
:10077000FFF7A4FFFB681B6919462A48FFF79EFF95
:10078000FB685B6919462848FFF798FFFB689B697F
:1007900019462648FFF792FFFB68DB691946244893
:1007A000FFF78CFF2348FFF789FFB9682248FFF75E
:1007B00085FF224BDB6A19462148FFF77FFF1F4B5D
:1007C0001B6B19461F48FFF779FF1C4BDB6B194663
:1007D0001D48FFF773FFBB6803F08003002B03D0B5
:1007E00079681A48FFF76AFFBB6803F40043002BDF
:1007F00003D039681648FFF761FF1648FFF75EFF20
:10080000B9691548FFF75AFF00BF1037BD4680BDD4
:100810006461000874610008846100089461000844
:10082000A4610008B4610008C4610008D461000834
:10083000E4610008F46100080062000800ED00E0D7
:100840001062000820620008306200084062000860
:1008500050620008606200086862000880B586B0D7
:1008600000AF78600B467B807B689B697B617B690E
:100870001B887A889A425DD17B681B683B617B68E4
:100880005B68FB60FB68BB603B69013B042B47D89E
:1008900001A252F823F000BFAD08000821090008AA
:1008A0002509000825090008FF080008BB681B6827
:1008B0002349184600F084FA0346002B1AD1BB687E
:1008C00004331B68002B03D17B6801221A602AE0E5
:1008D000BB6804331B68042B03D17B6802221A60B7
:1008E00021E0BB6804331B68082B03D17B6803221B
:1008F0001A6018E07B684FF0FF321A6013E0BB68A3
:100900001B68022B03D0BB681B68032B03D17B68D9
:1009100000221A6007E0BB689A687B681A6002E0F0
:10092000002308E000BF7B689B699A1C7B689A6182
:10093000012300E0002318461837BD4680BD00BFE4
:100940008062000880B500AF00F010F8024B034A47
:100950009A6000BF80BD00BF00ED00E0000000080D
:1009600080B500AF00F00EF800BF80BD80B400AFCE
:10097000034B4FF000629A6000BFBD4680BC7047D9
:1009800000ED00E080B487B000AF00233B6100239E
:100990007B610223FB600023BB6002237B60344B3E
:1009A0009B6803F00C033B613B69082B11D03B694A
:1009B000082B44D83B69002B03D03B69042B04D09F
:1009C0003DE02C4B2C4A1A603DE02A4B2B4A1A6022
:1009D00039E0274B5B689B0D03F00103BB60244BA0
:1009E0005B6803F03F037B60BB68002B0CD0234A9D
:1009F0007B68B2FBF3F31E4A52689209C2F3080205
:100A000002FB03F37B610BE01B4A7B68B2FBF3F351
:100A1000174A52689209C2F3080202FB03F37B6192
:100A2000134B5B681B0C03F0030301335B00FB609B
:100A30007A69FB68B2FBF3F30E4A136003E00D4BD7
:100A40000D4A1A6000BF0A4B9B681B0903F00F0395
:100A50000B4AD35C3B61074B1A683B6922FA03F3EC
:100A6000044A136000BF1C37BD4680BC704700BFFE
:100A7000003802400C0000200024F40000127A002C
:100A8000B062000880B483B000AF0346FB7197F9F1
:100A90000730002B0BDBFB7903F01F02064997F9A7
:100AA00007305B09012000FA02F241F8232000BF61
:100AB0000C37BD4680BC704700E100E080B483B0D5
:100AC00000AF03463960FB7197F90730002B0ADB52
:100AD0003B68DAB20C4997F907301201D2B20B44E5
:100AE00083F800230AE03B68DAB20849FB7903F097
:100AF0000F03043B1201D2B20B441A7600BF0C372D
:100B0000BD4680BC704700BF00E100E000ED00E0A2
:100B100080B400AF074B1B6B064A43F0010313631D
:100B2000054B1B68044A43F00F03136000BFBD462A
:100B300080BC7047003802400000024080B400AF23
:100B4000064B5B6803F03003302B02D1034B30229D
:100B5000DA6000BFBD4680BC704700BF0064024041
:100B600080B500AF134B1B6B124A43F48003136331
:100B7000114B9A681049114B13438B600E4BDB6885
:100B80000F490D4A0B43D3600B4B02225A600A4BAC
:100B900045F210521A603C20FFF774FF04213C20FC
:100BA000FFF78CFF044B1B68034A43F001031360FB
:100BB00000BF80BD00380240706402404C200140FC
:100BC0005007002080B500AFFFF7A2FF134B4FF492
:100BD00080725A64124B5B68114A43F4807353600D
:100BE0000F4B9B680E4A43F4E06343F003039360AA
:100BF0000B4B5B6B0A4A43F020035363084BDB6AE1
:100C0000074A43F48013D362FFF7AAFF044B9B68A3
:100C1000034A43F08043936000BF80BD0038024028
:100C20000020014080B400AF124B1B69114A23F031
:100C3000010313610F4B1B680E4A23F0010313607D
:100C40000D4B1B680B4A642101FB03F393620A4BB3
:100C50005B68084A0949A1FB03135B095363054B11
:100C60001B68044A43F00103136000BFBD4680BC0B
:100C7000704700BF00080040500700201F85EB515F
:100C800080B500AF204B1B6B1F4A43F00803136372
:100C90001E4B1B681D4A43F0007313601B4B5B6ABD
:100CA0001A4A43F400335362174B1B6C164A43F045
:100CB00004031364164B01229A62154B6422DA6214
:100CC000134B9B69124A43F060039361104B01225E
:100CD0005A630F4B1B6A0E4A43F0010313620C4B1D
:100CE000DB680B4A43F00103D3601E20FFF7CAFE06
:100CF00002211E20FFF7E2FE054B1B68044A43F069
:100D00000103136000BF80BD00380240000C0240A8
:100D10000008004080B500AFFFF754FFFFF7B0FFB9
:100D200000BF80BD80B500AFFFF7F4FFFEE7000015
:100D300010B51A4C002924689AB02ADB0090049060
:100D40004FF40270ADF80C0013D001394FF6FF706C
:100D500002910591ADF80E006946204600F01CFA9C
:100D6000421C01DA8B232360009B00221A701AB008
:100D700010BD4FF6FF7002910591ADF80E00694667
:100D8000204600F009FA431C01DA8B2323601AB0D5
:100D900010BD8B2323604FF0FF30F8E710000020D8
:100DA000014B1868704700BF1000002000000000D1
:100DB0000000000000000000000000000000000033
:100DC00002780B78012A28BF9A4240F0D8806DE95A
:100DD000044540EA0104CDE902676FF0000C4FEAD8
:100DE00044721AB380EA010414F0070F6BD100F0CB
:100DF000070420F0070004F0030521F007014FEA83
:100E0000C505F0E8042314F0040FF1E804670CFAB8
:100E100005F462EA040266EA04060BD063EA0403FE
:100E2000624667EA0407664604E000BFF0E8042370
:100E3000F1E8046782FA4CF582EA0604A4FA8CF41D
:100E40006CBB83FA4CF583EA0705A5FA8CF595B9D6
:100E500050E9022351E9026782FA4CF582EA06045E
:100E6000A4FA8CF483FA4CF583EA0705A5FA8CF50D
:100E70002543DBD09CB92DBAB5FA85F424F00704DC
:100E800027FA04F1DDE9026723FA04F303F0FF0017
:100E900001F0FF01FDE80445A0EB0100704724BA12
:100EA000B4FA84F424F0070426FA04F1DDE90267B9
:100EB00022FA04F202F0FF0001F0FF01FDE8044510
:100EC000A0EB0100704714F0030F3CD110F00304B5
:100ED00028D150F8082B51F8083B82FA4CF582EAE9
:100EE0000305A5FA8CF55DB950F8042C51F8043CC3
:100EF00082FA4CF582EA0305A5FA8CF5002DE8D0BC
:100F00002DBAB5FA85F424F0070423FA04F122FA85
:100F100004F202F0FF0001F0FF01FDE80445A0EB40
:100F2000010070474FEAC40420F0030050F8082B7A
:100F300021F0030151F8083B0CFA04F462EA0402C0
:100F400063EA0403C9E710F003041DD0A1EB040118
:100F500020F00300E40750F8042B06D012D28B785F
:100F60005FFAA2F4E41A06D12BB1CB785FFAB2F49F
:100F7000E41A00D133B920465DF8104B7047A2EB5C
:100F80000300704701F1040150F8042BCC0721F055
:100F9000030151F8043B48D824D222F07F4482FA5E
:100FA0004CF594EA1325A5FA8CF50AD165B951F8E8
:100FB000043B84EA0204B4EB036F0ED150F8042B17
:100FC000EBE74FEA132355E035F07F454DD1087824
:100FD000FDE80445C0F1000070474FEA126203F0DB
:100FE000FF0347E002EA1C4482FA4CF594EA1345F9
:100FF000A5FA8CF50AD165B951F8043B84EA0204DC
:10100000B4EB034F0CD150F8042BEBE74FEA13433A
:1010100030E015EA1C4528D10B884FEA124229E03E
:101020004FEA124203EA1C4324E002F0FF0482FA72
:101030004CF594EA1365A5FA8CF50AD165B951F817
:10104000043B84EA0204B4EB032F09D150F8042BCB
:10105000EBE74FEA13630DE015F0FF0F05D10B68C6
:101060004FEA122223F07F4304E04FF00000FDE836
:101070000445704712BA1BBA82FA4CF482EA0304A0
:10108000A4FA8CF5B5FA85F402FA04F203FA04F333
:101090004FEA1260FDE80445A0EB1360704700BF03
:1010A0000000000000000000000000000000000040
:1010B0000000000000000000000000000000000030
:1010C00030B490F800F020F007016FF0000C10F041
:1010D000070491F820F040F048804FF000046FF0D2
:1010E0000700D1E9002391F840F000F1080082FAEE
:1010F0004CF2A4FA8CF283FA4CF3A2FA8CF34BBBB9
:10110000D1E9022382FA4CF200F10800A4FA8CF231
:1011100083FA4CF3A2FA8CF3E3B9D1E9042382FAFF
:101120004CF200F10800A4FA8CF283FA4CF3A2FA14
:101130008CF37BB9D1E9062301F1200182FA4CF24C
:1011400000F10800A4FA8CF283FA4CF3A2FA8CF3B3
:10115000002BC6D0002A04BF04301A4612BAB2FAD5
:1011600082F200EBD20030BC7047D1E9002304F0DA
:101170000305C4F100004FEAC50514F0040F91F80F
:1011800040F00CFA05F562EA05021CBF63EA0503AC
:1011900062464FF00004AAE72DE9F04FDFB00C469D
:1011A000099191460D93834601F04EFE03681A9310
:1011B0001846FFF785FF0021189008222EA801F09D
:1011C000B7FDA389190603D52369002B00F0888792
:1011D0000023CDE93333CDE91B33CDE91D33139320
:1011E00019930A9300240023CDE9163435AA3292CC
:1011F0009046CDF81CB04D46079F2E46734BD3F852
:10120000E44001F01BFE03462EA8009032462AA9B6
:101210003846A047002800F0A980C0F29F802A9A93
:10122000252A034601D01E44E8E7771B044640F018
:10123000A08000238DF89F3099460B934FF0FF322A
:1012400073780892741C0134A3F120025A2A00F228
:10125000BF80DFE812F0E602BD00BD00E202BD0083
:10126000BD00BD006A00BD00BD0048025702BD00C0
:101270005302F402BD00F0025B005B005B005B0008
:101280005B005B005B005B005B00BD00BD00BD0060
:10129000BD00BD00BD00BD003E01BD00C7010E0385
:1012A0003E013E013E01BD00BD00BD00BD00DE02AD
:1012B000BD00BD005C02BD00BD00BD00F101BD0070
:1012C000CB02BD00BD000607BD00BD00BD00BD00D6
:1012D000BD00BD00BD00BD003E01BD00C701230231
:1012E0003E013E013E018D0223027F00BD00A602A9
:1012F000BD009702FB06B9027F00BD00F1017D0031
:101300000107BD00BD002A07BD007D00A3F130022A
:10131000002114F8013B01EB810102EB4101A3F133
:101320003002092AF5D90B918EE7079F384601F064
:101330008BFD43681D931846FFF7C2FE1E900646BC
:10134000384601F081FD83681B93002E40F016861D
:10135000237878E7237849F0200974E708220021F0
:101360002EA801F0E5FC01231E4447E7771B044645
:1013700011D0349B3B443493339B0133072BC8E992
:101380000057339318DC08F108080A9B3B440A9382
:10139000002C7FF44EAF349BDDF81CB0002B41F0E5
:1013A000ED81099B9B8903F04003002B41F0BD8335
:1013B0000A985FB0BDE8F08F0999079832AA03F048
:1013C000F1F90028EDD10DF1D408DEE73801002055
:1013D000CDE90E34002BDED000228DF8143101232C
:1013E0008DF89F2006930C929B46089214921092BF
:1013F000129245AD19F0020302D00699023106910E
:1014000019F08407349C05D10B9906980E1A002E0A
:1014100000F3A78082B10122C8F80420339A013278
:1014200001340DF19F01072A34943392C8F800105B
:1014300000F3038408F1080883B1339B28AA013321
:101440000234C8F80020072B4FF002023494339383
:10145000C8F8042000F3E58308F10808802F00F0A5
:10146000BE82089BA3EB0B06002E00F3FD8219F44D
:10147000807F40F01782339BC8F8005001335C44F2
:10148000072BC8F804B03494339300F36A8308F14F
:10149000080819F0040F05D00B9B069A9D1A002D21
:1014A00000F3DA83DDE90A3206998A42ACBF9B1861
:1014B0005B180A93002C40F01683002333930C9B97
:1014C0001BB10C99079802F09FFD0DF1D4080F9DF8
:1014D00092E6CDE90E340D9B073323F00703F3E8C2
:1014E00002670D9327F0004323932296DDE922AB98
:1014F000B14B4FF0FF3250465946CDE9166704F024
:1015000097FD002840F04785AB4B4FF0FF32504627
:10151000594604F06FFD002840F03D85002200236D
:101520003046394604F05CFD002841F053809DF8B8
:101530009F20A24DA24B29F080090E994729C8BFD0
:101540001D46002303210C9306918B4608931493A8
:1015500010931293002A3FF44DAF069B013306937C
:1015600048E7102E339A41F3798296482195CDE9C8
:101570001F372146099D079C15904FF0100A07461A
:1015800004E0103E102E08F1080816DD013210317B
:10159000072AC8E9007ACDE93321F2DD32AA2946CB
:1015A00020460DF1D40803F0FDF8002840F0F18644
:1015B000103E102EDDE93321E8DCDDE91F37219DE7
:1015C0000C4601321599C8F800103444072ACDE9B9
:1015D0003324C8F8046000F3CB869DF89F2008F1FF
:1015E000080817E70D9A432BCDE90E3402F10404E5
:1015F00003D019F0100F00F05D850822002130A8FB
:1016000001F096FB0D9B07981A6845AD30AB294653
:1016100001F076FCB0F1FF3F834601F0818220EAC1
:10162000E073069300220D948DF89F200C9208928F
:10163000149210921292DDE60D9E56F8045BCDE9ED
:101640000E3400238DF89F30002D00F058850E9B3E
:10165000532B00F0BA8619F01003129340F0B586B0
:10166000089B5A1C01F0958012991A46284601F0F1
:10167000F7FB0C90002801F0F0820C9B0D96A3EB79
:10168000050B129B08932BEAEB71149310930C93A8
:1016900073239DF89F2006910E935BE719F0200FAE
:1016A000CDE90E3400F0ED800D9B073323F00703E6
:1016B0001A46596852F8083B0D920A460029C0F2B2
:1016C0001A840899013100F09D8253EA020129F041
:1016D000800440F09882089A002A40F09982A1463E
:1016E00093465EAD52E10D9B53F8042B0B92002AFA
:1016F00080F225840B9A0D9352420B92237849F085
:101700000409A0E52B238DF89F3023789BE5CDE9D4
:101710000E3449F0100919F0200200F0B5830D9B3A
:10172000073323F0070319465A6851F8083B0D9117
:1017300029F4806400210020089D8DF89F006F1C13
:1017400000F00D8153EA020024F0800940F0068188
:10175000002D40F02886002940F0C98314F0010BC9
:1017600000F0F18330238DF877310DF277150DE11C
:101770002378682B03BF637849F40079013449F07A
:10178000400960E519F0200F0F9400F0E6830D9BEF
:101790000A9A1B681A60D2175A600D9B04330D9386
:1017A00095E623786C2B03BF637849F02009013458
:1017B00049F0100947E500BFFFFFEF7FC062000856
:1017C000C4620008146300080D9A0F9452F8043B99
:1017D0000D9247F63002ADF8A0207820A84A199261
:1017E00049F00204002202210E90A4E7CDE90E3454
:1017F00049F0100414F0200200F055830D9B0733CC
:1018000023F0070319465A6851F8083B0D9101214E
:1018100091E7237849F0080915E5237849F0010993
:1018200011E59DF89F202378002A7FF40CAD20223B
:101830008DF89F2007E5237849F0800903E52146CC
:1018400011F8013B2A2B01F02B82A3F13002092A67
:101850000C4698BF002101F2328114F8013B01EBE4
:10186000810102EB4101A3F13002092AF5D9089167
:10187000EAE449F0100919F0200FCDE90E347FF4A5
:1018800013AF0D9A19F0100F52F8043B0D9240F06F
:10189000608319F0400F00F0588343F3C0321146C3
:1018A0001BB20BE70E9B652B40F36681DDE9160149
:1018B0000022002304F08AFB002800F01182339BF1
:1018C000704AC8F80020013301340122072B3494F8
:1018D0003393C8F8042000F36B8508F10808299BAE
:1018E000139A934280F22683189B1A9A1C44C8E9E3
:1018F0000023339B34940133072B339300F3E483A9
:1019000008F10808139B5D1E002D7FF7C2AD102D56
:10191000339B40F3AE855C4FDDF81CB0DDF824A0AE
:101920001597102605E008F10808103D102D40F32A
:10193000A28501331034072BC8E90076CDE9333492
:10194000F1DD32AA5146584602F02CFF002840F043
:10195000C082DDE933340DF1D408E6E74C460129B5
:1019600000F0518102295EAD1ED1199803F00F01DC
:101970001B09415C05F8011D43EA0273120953EA91
:101980000201F3D15EABA146A3EB050B08999DF8CC
:101990009F2059454FF00003B8BF59460C9306915C
:1019A000149310931293D5E503F00701DB0843EA83
:1019B0004273D208303153EA0206284605F8011D69
:1019C000F2D1E607DED53029DCD03023023805F825
:1019D000013C5EABA146A3EB000B0546D6E70B9B93
:1019E000069A9E1A002E7FF73CAD102E339B41F3D2
:1019F000A1802548DDF81CA01590214610271A4625
:101A0000044604E0103E102E08F1080816DD0132ED
:101A10001031072AC8E90047CDE93321F2DD0999E1
:101A200032AA50460DF1D40802F0BCFE002840F066
:101A3000B284103E102EDDE93321E8DC0C4613465B
:101A40000133159AC8F800203444072BCDE933340C
:101A5000C8F8046000F31D85089BA3EB0B06002E5D
:101A600008F108087FF703AD074A339B1592102E43
:101A70002ADD2246079F099C4FF0100A0BE000BFA9
:101A8000D06200080063000804630008103E102EB6
:101A900008F1080817DD01338E491032072BC8E919
:101AA000001ACDE93332F1DD32AA2146384602F080
:101AB00079FE002840F00C82103E102EDDE9333212
:101AC0000DF1D408E7DC14460133159AC8F800205C
:101AD0003444072BCDE93334C8F8046000F3C781E0
:101AE00008F10808C3E40999079832AA02F05AFEDF
:101AF00000283FF4E2ACDDF81CB0EAE1339B764904
:101B0000C8F80010013301340121072B34943393BA
:101B1000C8F8041000F3748508F10808002A40F0A2
:101B2000E684139A09F0010313433FF4B2AC189B07
:101B30001A9A1C44C8E90023339B34940133072BC1
:101B4000339300F3458608F10808139AC8F800504B
:101B500001331444072BCDE93334C8F804207FF750
:101B600096AC0999079832AA02F01CFE0028C2D14F
:101B7000349C0DF1D4088CE4139B339E012B04F1AB
:101B8000010406F1010608F1080740F32981012349
:101B9000072ECDE93364C8F80050C8F8043000F3CC
:101BA000B181189B1A9A01361C44072EC7E90023FD
:101BB000CDE9336400F3B2810837139BDDE91601E8
:101BC00003F1FF380022002304F000FA002840F05F
:101BD0002181013601354444072ECDE933643D604F
:101BE000C7F8048000F30A8108371C9B7B6001362C
:101BF0001C44072E2CABCDE933643B60B1DC07F10C
:101C0000080846E44C460A2B72F1000180F0538329
:101C100030338DF87731A1464FF0010B0DF2771577
:101C2000B4E60999079832AA02F0BCFD00287FF4B7
:101C300062AF349C0DF1D40810E40999079815930C
:101C400032AA02F0AFFD00287FF455AF349C159BFB
:101C50000DF1D408FFF7F0BB102D339B40F3338711
:101C60001E4FDDF81C90DDF824A01597102604E027
:101C7000103D102D08F1080816DD01331034072B34
:101C8000C8E90076CDE93334F2DD32AA5146484640
:101C90000DF1D40802F086FD002840F0E883103DE5
:101CA000102DDDE93334E8DC0133159A2C44072B81
:101CB000C8E90025CDE933347FF7F4AB09990798DB
:101CC00032AA02F06FFD00287FF415AF349CFFF7B5
:101CD000E9BB00BF04630008006300081463000848
:101CE000299A002A7FF70AAFDDE912739F42A8BF45
:101CF0001F46002F05EB030B0BDD339B01333C44E8
:101D0000072BC8E900573494339300F3428608F157
:101D10000808129E002FA8BFF61B002E00F30082B9
:101D2000DDF848A019F4806FAA4440F02182299D73
:101D3000139B9D4203DB19F0010F00F06F84189B89
:101D40001A9A1C44C8E90023339B34940133072BAF
:101D5000339300F3758608F10808139BABEB0A0672
:101D60005D1BAE42A8BF2E46002E0DDD339BC8F88A
:101D700000A001333444072BC8F804603494339333
:101D800000F3708608F10808002EA8BFAD1B002DD7
:101D90007FF77FAB102D339B40F36B83AD4FDDF8A6
:101DA0001CB0DDF824A01597102605E008F10808FE
:101DB000103D102D40F35F8301331034072BC8E929
:101DC0000076CDE93334F1DD32AA5146584602F0AF
:101DD000E9FC00287DD1DDE933340DF1D408E7E7D3
:101DE00019F0010F7FF4D3AE0123072ECDE9336440
:101DF000C8F80050C8F804307FF7F7AE0999079883
:101E000032AA02F0CFFC00287FF475AEDDE933641E
:101E100035AFEAE6139B012B7FF7E7AE112B8D4B15
:101E2000159340F35883CDF82090DDF81CA0DDF821
:101E300024B01025994606E00837A8F11008B8F13B
:101E4000100F40F3468301361034072EC7E9009582
:101E5000CDE93364F0DD32AA5946504602F0A2FCC7
:101E6000002840F09882DDE9336435AFE5E7099951
:101E7000079832AA02F096FC00287FF43CAE349C0E
:101E80000DF1D408FFF7F3BA0D9951F8043B0D9109
:101E900019F010017FF44CAC19F0400000F063839E
:101EA0009BB20A4644E40D9951F8043B0D9114F09D
:101EB00010010BD114F0400003D00A469BB201215F
:101EC00039E414F400721CBFDBB20246012132E493
:101ED000BB460C9B002B3FF464AA0C99584602F0B9
:101EE00093F8099B9B8903F04003FFF75EBADDF886
:101EF00020B05EAD4AE55B4262EB42024C462D20CB
:101F0000012119E40999079832AA02F04BFC002834
:101F10007FF4F1ADDDE9336435AF42E60999079806
:101F200032AA02F03FFC00287FF4E5ADDDE933641E
:101F300035AF42E619F0010F3FF4ABAAD4E40D939C
:101F40002378FFF780B95EAD20E519F4007F40F0FB
:101F50007483DA171146FFF7B1BB19F0100F40F088
:101F6000B28219F0400F40F0628319F4007F00F054
:101F7000AA820D9B0A9A1B681A700EE41B9A23789A
:101F8000002A3FF460A91278002A3FF45CA949F4C2
:101F90008069FFF758B9DDE9160102460B4604F0E7
:101FA00047F8002840F00F860E9B612B00F0068555
:101FB000412B00F08285089B013300F017840E9BB3
:101FC00023F02003472B04D1089B002B08BF0123DB
:101FD0000893DDE9161249F48070002A1590CDF8B7
:101FE00018904FF00003C0F22185CDE924121F9311
:101FF0000C930E9B413B252B00F22883DFE813F066
:102000000104260326032603FA03FE032603260300
:102010002603260326032603260326032603260378
:102020002603260326032603260326032603260368
:102030002603260326032603260326032603260358
:102040002603260326032603FA03FE03CDE90E34F6
:10205000FFF761BB04630008CDE90E344C46FFF77F
:10206000C9BBCDE90E34BD4B199319F0200200F025
:1020700008810D9B073323F0070319465A6851F86E
:10208000083B0D9119F0010F0AD053EA020107D065
:102090000E998DF8A110302149F002098DF8A01099
:1020A00029F480640221FFF746BBCDE90E34AC4B26
:1020B0001993DAE70D9B1B688DF814310123069301
:1020C0009B4645ADFFF7AEBA0999079832AA02F0D0
:1020D00069FB00287FF40FAD349C0DF1D40811E4A6
:1020E0004021584602F08EF8099B186018610028BC
:1020F00000F01486099A40235361FFF769B8089BE2
:102100000C95062B294628BF062308952A460693D8
:10211000944D0D969B46149110911291FFF71ABAA7
:10212000102E339B40F3EB858F48DDF81CA01590F3
:1021300042462146A846099C1027054604E008327D
:10214000103E102E40F3248201331031072BC2E9D8
:102150000057CDE93331F2DD32AA2146504602F074
:1021600021FB002840F01781DDE9333135AAE7E78C
:10217000109BCDF820B0CDF83890424621467A4FDA
:10218000DDF85090DDF87880DDF81CB05446DDF8BD
:102190006CA083B3B9F1000F00F0FF8009F1FF39A3
:1021A00033981D9B013041440728C2E9003834911F
:1021B000339075DC0832089B9AF800001E1B86429B
:1021C000A8BF0646002E0CDD3398013031440728A5
:1021D000C2E900463491339000F368819AF8000018
:1021E0000832002EACBF851B0546002D13DC0444CD
:1021F000109B002BCED1B9F1000FCFD1DDF820B06C
:10220000CDF86CA0A246DA45DDF8389090460C4631
:1022100028BFDA468BE5102D339840F33E852346E0
:102220003E462C461D4604E0103C102C02F10802EC
:1022300016DD0130103110230728CDE93301176076
:102240005360F1DD099932AA584602F0ABFA002832
:102250007FF43FAE103C102CDDE9330135AAE8DCF9
:102260002B4625461C46013029440728CDE9330179
:102270001660556000F37F839AF80000083204442A
:10228000B6E70D9951F8043B0D9119F010017FF458
:10229000F9AE19F0400000F060819BB20A46F1E609
:1022A000099932AA584602F07DFA00287FF411AE4F
:1022B000349935AA7FE704F4806B0021CDF8308093
:1022C000DFF8A890DDF86C8006945EAD4FF0CC3A54
:1022D00005278C465E4605E00A2B72F1000233D3D7
:1022E0005B462246991841F10001A9FB010424F044
:1022F000030000EB9400091A581A62F1000E0AFB61
:1023000000F4A0FB09B009FB0E440BF0010E0444DD
:10231000AEFB070E40184FEA5B0B303005F8010C9E
:102320004BEAC47B0CF1010C013D6408002ED3D0B4
:1023300098F800108C45CFD1BCF1FF0FCCD00A2B00
:1023400072F1000280F03781CDF86C80069CDDF8D8
:102350003080CDF84CC0FFF715BB00BFE462000829
:10236000D0620008F862000804630008CDCCCCCC31
:1023700009990798159332AA02F014FA00287FF4FD
:10238000BAAB9DF89F20349C159B0DF1D408FFF744
:1023900041B8A3469DE5D3469BE5109B013B0AF15E
:1023A000FF3A1093FCE601294C467FF4DBAA2FE4A8
:1023B0000999079832AA02F0F5F900287FF49BAB3F
:1023C000349C0DF1D408FFF78ABA30AF08220021FF
:1023D00038462B9500F0ACFCDDF820A0BAF1FF3FA9
:1023E00000F0C8800024CDF81890A346DDF81C90BA
:1023F0000CE045A9484600F083FD411C584400F01C
:102400008F83504508DC00F0428483462B9A125992
:102410003B460434002AECD1DDF81890BBF1000FE4
:1024200000F0DD80BBF1630F00F3BA8100230C9351
:1024300045AD08220021384600F07AFC0798009745
:102440005B462BAA294600F081FD834540F05D8460
:10245000002305F80B302BEAEB719DF89F200D96B9
:1024600008930691149310931293FFF773B8CB4619
:102470002FE5754A15920133159AC8F800202C44AF
:10248000072BC8F80450CDE933347FF700A8FFF7D5
:1024900068BB0999079832AA02F084F900287FF4F2
:1024A0002AAB349C0DF1D408FEF7DBBF099932AAA0
:1024B000584602F077F900287FF40BAD9AF8000037
:1024C000349935AA8DE60D9B0A9A1B681A60FFF7AE
:1024D00064B9DDF82090159B3B6001364444072E1B
:1024E000CDE93364C7F804807FF77EAB86E4189BA0
:1024F0001A991C44C8E90013339B34940133072B09
:10250000339300F3658108F10808002ABFF61DAB7C
:10251000564210324C4A159280F2E882AA461027A1
:10252000154605E008F10808103E102E40F3DD8244
:1025300001331034072BC8E90057CDE93334F1DDFE
:102540000999079832AA02F02DF900287FF4D3AA3E
:10255000DDE933340DF1D408E6E719F400721CBF4D
:10256000DBB202468EE519F400721CBFDBB20246F4
:10257000FFF7DEB80023079800972BAA194600F052
:10258000E5FCB0F1FF3F834600F0CA822B9545E79A
:1025900045460C4690460133159AC8F8002034444D
:1025A000072BCDE93334C8F8046000F3048108F147
:1025B0000808FFF7B5BB1E9B1D99ED1A1A46284661
:1025C00000F008FC98F801300BB108F101084FF059
:1025D000000C85E62D228DF89F20FEF7AABF9DF8FE
:1025E0009F200D96CDF818B0CDF820B0CDF850B0A2
:1025F000CDF840B0CDF848B0CDF830B0FEF7AABF66
:102600000999079832AA02F0CDF800287FF473AA3E
:10261000299A349C0DF1D408FFF780BA139BABEBD9
:102620000A065D1BAE42A8BF2E46FFF7ADBB0D9B51
:102630000A9A1B681A80FFF7B0B843F3C01211461C
:102640005BB2FFF73BB800BF04630008089E02239B
:10265000CDE9003630AB04932BAB039329AB029347
:102660000798DDE9242300F04FFD0E9B672B0546FC
:1026700000F03B810E9B472B00F037810E9B23F02F
:102680002007462F00EB060405D10378302B00F01D
:10269000F182299E3444DDE924010022002303F065
:1026A00095FC002800F03F8123465B1B1393299A79
:1026B0001292472F00F02181462F00F0E3810E99FE
:1026C000531E6129299300F01883412940F020818D
:1026D00050210120002BB6BFC2F101032B222D2275
:1026E000092B8DF8B0108DF8B12040F327820DF141
:1026F000C704AE4E22461046A6FB0312D20802EBD8
:102700008201A3EB4101303100F8011C1946632915
:10271000134600F1FF32EEDC303302F8013C831E39
:10272000A34280F0EF820DF1B10213F8011B02F811
:10273000011FA342F9D15EAB181AA0F1AD031C939F
:10274000139B1C9A012B03EB020B40F32A82189B6C
:102750009B44069B23F4806343F480792BEAEB725D
:10276000002314930692109312931F9B002B40F0AA
:10277000D3809DF89F200893FEF7ECBE099C32AAF7
:102780002146584602F00EF8A38903F04003FEF7F5
:102790000CBE28460D96FEF793FC8346FEF771BFEC
:1027A00007980BF1010101F02DFD0546002800F00E
:1027B000B7810C903DE60999079832AA01F0F2FF23
:1027C00000287FF498A9349C0DF1D408FFF7A8BA2B
:1027D0000999079832AA01F0E5FF00287FF48BA938
:1027E000DDE93334299A0DF1D4088EE606230893E7
:1027F000FFF7EFBB089B5E1C022329E7089E03231B
:1028000026E729AADDE9240100F0AEFB00224FF003
:102810007F5303F073F902460B46CDE910230022E3
:10282000002303F0D3FB002840F0C081604B1293DB
:10283000089BCDF84C8003F1FF392E461495DDF846
:1028400048B04D46DDE9108905E00022002303F081
:10285000BDFBF0B93D46574B00224046494603F0C8
:102860004DF98946804603F0F9FB044603F0DCF895
:1028700002460B464046494602F088FF1BF80430EA
:102880006A1CB24605F1FF3706F8013B80468946CF
:10289000DBD1CB465746C246474BDDF84C80002281
:1028A00050465946A946149D03F0B8FB002840F055
:1028B0005381414B50465946002203F087FB10B12B
:1028C000E30700F14981B9F1000FC0F25F8109F11E
:1028D00001033344302206F8012BB342FBD15B1BCA
:1028E00013930E9B23F02007E1E6069BDF0700F120
:1028F000F980309B299A5B1B1393D31C129202DB45
:10290000089B93421BDA0E9B023B0E93531E2993A6
:102910009DF838100020DDE62D2200238DF89F2041
:102920000893FEF71ABE309BA342BFF4BEAE30211F
:102930005A1C30921970309B9C42F9D8B5E6139915
:102940008A42C0F2C480069BDC0740F18481189B58
:1029500002EB030B069B580502D5002A00F34D81BC
:102960002BEAEB730693DDF8549067230E93002354
:1029700014931093F9E6099932AA584601F012FF10
:1029800000287FF4A6AA9AF80000349935AA0444D6
:102990002EE40999079832AA01F004FF00287FF479
:1029A000AAA8349C0DF1D408FFF7B3B9CDCCCCCC98
:1029B000E4620008000030400000E03F78238DF81A
:1029C000A13030238DF8A03049F002030693089B14
:1029D000632B00F3DD8000230C9345AD49F4817334
:1029E0001593179B002B22DB00231F93DDE9163480
:1029F000CDE924340E9B612B7FF4FBAA29AADDE9E3
:102A0000240100F0B1FA00224FF07F5303F076F872
:102A100002460B46CDE910230022002303F0D6FA2C
:102A2000002840F0C380A94B129301E70C93DDE925
:102A30001634249304F1004325932D231F93D9E7E3
:102A40000999079832AA01F0ADFE00287FF453A837
:102A5000299D349C0DF1D408FFF77FB99C4915914D
:102A6000FEF7AFBD0999079832AA01F09BFE002836
:102A70007FF441A8299D139B349C5D1B0DF1D40864
:102A8000FFF782B9069B1299089A03F00103002907
:102A900043EA020340F30F81002B40F0D580662308
:102AA000DDF848B00E93069B5A0500F1A8802BEA8A
:102AB000EB73DDF85490069359E758237FE7002223
:102AC0000892FEF7C1BB824A1592FFF7EDB8139B3F
:102AD000189A03EB020B129B002B40F383806723B1
:102AE0000E93E0E7AC194727D5E555460133159A13
:102AF000C8F800203444072BCDE93334C8F804600B
:102B00007FF721A80999079832AA01F04BFE002807
:102B10007EF4F1AFDDE933340DF1D408FFF715B8D9
:102B2000099A938943F0400393814FF0FF330A934E
:102B3000FEF73EBC674A1592FEF782BF00283FD1E0
:102B400030228DF8B2200DF1B302303302F8013B90
:102B50002CABD31A1C93F3E5129B3097D97B16F854
:102B6000012C8A42334609D1302003F8010C309BF6
:102B70005A1E309213F8012C9142F6D0392A0BBF1D
:102B8000129A0132927AD2B203F8012C3346A6E6A9
:102B90000798591C01F036FB05460028C0D00C9060
:102BA0001CE7069BDE077FF5D4ADD0E54A4B474ACC
:102BB0000E99612918BF1A4601231292299337E60C
:102BC0000DF1B202C1E7179B444D002BB4BF2D227B
:102BD0009DF89F20424BB8BF8DF89F2029F08009B7
:102BE000FEF7ABBCC3F101039B442BEAEB730693E6
:102BF0006723DDF854900E93B9E667230E931B9973
:102C00000B78FF2B00F08E800024129A204603E000
:102C100001300131FF2B08D0934206DAD21A4B78EB
:102C2000002BF5D10B780134F4E71B91109014942C
:102C30001292DDE91439109A13441E9A02FB03BB69
:102C40002BEAEB73069390E5189BCF183A44662362
:102C500093460E9327E793467CE6089B06939B4694
:102C600073239DF89F200D960890149010900E935A
:102C7000FEF770BCDDE924010022002303F0A6F971
:102C800000287FF406ADC6F10106299602E5DDF8BD
:102C90001890DDF820B0FFF7C1BB0E4EFFF7E3BA86
:102CA0000D9A63780C4652F8041B0D9241EAE171CB
:102CB0000891FEF7C8BADDF854909BB94FF0010BAC
:102CC0006623CDF818B00E9351E600BFD06200081D
:102CD0001463000804630008E4620008C862000886
:102CE000CC620008189BDDF820B05F1CBB442BEAC7
:102CF000EB73069366230E9339E67021E9E40B4AE1
:102D0000159248E402231C931AE5099ADDF81CB0D9
:102D1000938943F040039381FFF7DBB80C23CBF892
:102D2000003002E700231493109382E70463000845
:102D3000830730B547D0541E002A3ED0CAB203469E
:102D400001E0013C39D303F8012B9D07F9D1032C95
:102D50002CD9CDB205EB05250F2C05EB054535D952
:102D6000A4F1100222F00F0C03F1100EE6444FEA1A
:102D7000121C1A46156055609560D5601032724578
:102D8000F8D10CF1010214F00C0F03EB021204F065
:102D90000F0C13D0ACF1040323F0030304331344EA
:102DA00042F8045B9A42FBD10CF003042CB1C9B287
:102DB0001C4403F8011B9C42FBD130BD6446134602
:102DC000002CF4D1F9E703461446C0E71A46A4469E
:102DD000E0E700BF40EA01039B0710B501D1032AD9
:102DE00017D8844601F1FF3E07E01EF8011F03F8E3
:102DF000011B541E29B19C4622466346002AF4D189
:102E000010BD9444002CFBD003F8011B6345FBD19B
:102E100010BD8E468446DEF80040A4F1013323EA5B
:102E2000040313F0803F71460EF1040EDAD1043A28
:102E3000032A4CF8044BEED87146D3E7014B93F8C4
:102E40002801704738010020004870472802002000
:102E5000704700BF704700BF000000000000000086
:102E600001F0FF01102A2BDB10F0070F08D010F83B
:102E7000013B013A8B422DD010F0070F42B3F6D13F
:102E8000F0B441EA012141EA014122F007047FF058
:102E900000070023F0E80256083C85EA010586EAAF
:102EA000010685FA47F5A3FA87F586FA47F6A5FAEB
:102EB00087F68EB9EED1F0BC01F0FF0102F00702F7
:102EC00032B110F8013B013A83EA010313B1F8D1A2
:102ED0000020704701387047002D06BF3546033883
:102EE000073815F0010F07D1013015F4807F02BFBC
:102EF000013015F4C03F0130F0BC0138704700BF0D
:102F000070B5054684B05BB11C460F4BD3F8E0604A
:102F1000234669B12846B047431C0FD004B070BDAA
:102F2000094B00F58274D3F8E06023460029F1D103
:102F30000A46284601A9B047431CEFD100228A2344
:102F400022602B6004B070BD3801002000B583B052
:102F5000DDF810C0CDE9003C4FF0FF3302F0CAFBB2
:102F600003B05DF804FB00BFDFF860C0F8B521F0E6
:102F700000430027634504460D461646176022D8D5
:102F8000844653EA0C0C1ED0DFF844C001EA0C0C56
:102F90000A46BCF1000F09D10E4B002202F0AEFD33
:102FA0006FF0350704460A4621F0004322F0FF4245
:102FB0001B1522F4E002A3F2FE3342F07F553B449E
:102FC00045F40015336020462946F8BDFFFFEF7F2A
:102FD0000000F07F000050432DE9F04F03690C69B9
:102FE000A34283B0C0F28A80013C01F1140500F1D4
:102FF000140855F8243058F8242001339A428E469C
:1030000081464FEA840105EB840708EB840AB2FB92
:10301000F3F63AD3CDE900150022AC4640461346FC
:103020005CF8041B05681FFA81FB06FB0B22090CE8
:103030004FEA124B06FB01BB92B2A9B2891A19449E
:103040001FFA8BF3C3EB214303EB154389B241EA2B
:103050000341674540F8041B4FEA1B424FEA2343F4
:10306000DED2DDE9001558F8013073B9AAF1040A7F
:10307000D04504D307E0D04504F1FF3403D25AF819
:103080000439002BF7D0C9F810407146484601F0CA
:10309000A1FE00282EDB4146002255F8040BD1F892
:1030A00000C01FFA80FE1FFA8CF3A3EB0E0313443B
:1030B000020CC2EB234202EB1C429BB243EA0243E6
:1030C000AF4241F8043B4FEA2242E6D258F82420AE
:1030D00008EB84036AB9043B984504D307E098459C
:1030E00004F1FF3403D253F80429002AF7D0C9F8B9
:1030F00010400136304603B0BDE8F08F002003B029
:10310000BDE8F08F000000002DE9F04F816B9FB00B
:1031100016461F46CDE904672B9D039049B1C26B4B
:103120004A600123934004468B6001F0F1FB0023C9
:10313000A363B7F10009B4BF012300232B60764BD2
:10314000BCBF29F00049CDF8149033EA090300F020
:10315000AA80DDE904340022184621460023CDE987
:10316000080102F033FF804668B12A9A01231360F8
:103170002C9B13B12C9A694B1360694B0A930A98E4
:103180001FB0BDE8F08F1CAB01931DAB00930398FB
:10319000DDE9082301F0F0FE5FEA1955824640F0B0
:1031A0009880DDE91C85454405F23243202B40F32D
:1031B0008383C3F1400309FA03F905F2124326FAA7
:1031C00003F349EA030002F01FFC0123013DA1F1D2
:1031D000F8711193534B002202F0D8FA48A3D3E9B7
:1031E000002302F08BFC48A3D3E9002302F0D0FABD
:1031F000064628460F4602F017FC45A3D3E90023F4
:1032000002F07CFC02460B463046394602F0C0FA1A
:1032100006460F4602F022FF002283460023304676
:10322000394602F0DDFE002840F01A83A8EB0508BD
:10323000BBF1160F08F1FF3400F28B813A4D05EB1C
:10324000CB05D5E90023DDE9080102F0C9FE00281D
:1032500070D00023002C0BF1FF3B1093C0F27E8155
:1032600000230B93BBF1000F6ADA0B9BA3EB0B035C
:103270000B93CBF10003CDE90EB3289B092B4FF044
:10328000000B65D8052B40F31C83043B28930025D5
:10329000289B023B032B00F22386DFE813F0600437
:1032A0005D04540438042A9AC9F3130942F20F73D7
:1032B00059EA060913601CD12C9B002B00F02B86C9
:1032C0001A4B0A9308332C9A0A9813601FB0BDE872
:1032D000F08FDDE90812C2F31303084643F07F5173
:1032E000CDF84480A5F2FF35DDF8708041F440113F
:1032F00070E72C9B002B40F0E7830D4B0A933EE7D1
:1033000061436F63A787D23FB3C8608B288AC63FEB
:10331000FB799F501344D33F0000F07F0163000806
:10332000006300080000F83FA06500087064000812
:103330007C640008B8F1000F40F3608410900B909B
:1033400000230F93289BCDF838B0092B5C4499D902
:103350000023CDE9283301254FF0FF330C95069368
:10336000039B0021D963069B1893039801F0AAFAE6
:103370000A90002800F0BD85039B0A9A9A63069B79
:103380000E2B00F21581002D00F012810E9A002AFA
:1033900040F33B84B24D02F00F0305EBC303D3E9C6
:1033A000008913461511DA0540F1FA83AD4BDDE9CA
:1033B0000801D3E9082302F0CBFCCDE9120105F0A6
:1033C0000F0503277DB1A74EEB0708D540464946B8
:1033D000D6E9002302F092FB0137804689466D1042
:1033E00006F10806F0D142464B46DDE9120102F033
:1033F000AFFC80468946109B43B19B4B0022404660
:10340000494602F0EDFD002840F0F184384602F014
:103410000BFB42464B4602F071FB944B002202F03C
:10342000B7F9069B0646A1F15077002B00F0A98062
:103430000E9B1993069B12930A9B894D4946404661
:10344000CDE914675E1C02F009FE129905EBC10379
:1034500053E902120746CDE9161202F0E5FA0246D8
:103460000B464046494602F091F989460C9930379F
:10347000DDE916238046FFB2002900F053847C4921
:10348000002002F065FCDDE9142302F07FF90A9DBB
:1034900002460B46CDE914232F7042464B4602F0FC
:1034A000BDFD002840F09784CDE91AB4CDF858A0AE
:1034B000129DDDE914AB00272AE00137AF4280F20C
:1034C000DE846C4B50465946002202F017FB694BD4
:1034D000002282468B464046494602F00FFB894651
:1034E000804602F0BBFD044602F09EFA02460B46FF
:1034F0004046494602F04AF9303406F8014B52463C
:103500005B468046894602F06BFD002840F0B4849B
:1035100042464B465449002002F038F952465B4679
:1035200002F05EFD0028C8D0199BDDF858A00A9A69
:10353000374603F1010802E0974200F07C843E46E2
:1035400017F8013D392BF7D00133DBB23B7045460C
:1035500075E10123002C1093BFF682AEC8F1010380
:103560000B9300247EE6384602F05EFA42464B4654
:1035700002F0C4FA3D4B002202F00AF90646A1F11E
:1035800050773D4B40464946002202F0FFF8324654
:103590003B468046894602F041FD002840F05A84AF
:1035A00040464946324607F1004302F019FD28BB68
:1035B0001D9B002BC0F292800E9A0E2A00F38E8083
:1035C000274D0E9B05EBC305D5E90034CDE9043446
:1035D000299B002B19DA069B002B16DC0ED1264BFB
:1035E0000022DDE9040102F089FA02460B46DDE91A
:1035F000080102F0FFFC002800F02C844FF00009C5
:103600000A9E4F46299BDD4325E2DDE90445DDE9BD
:10361000088922462B464046494602F099FB02F0B3
:103620001DFD064602F000FA22462B4602F066FA1D
:103630000A9F0B4602464946404602F0A7F806F1AB
:10364000300307F8013B069B012B00F01283012594
:10365000CDF818A09946DDE904ABA8462CE000BFE0
:10366000A0650008786500080000F03F00001C40DD
:103670000000E03F000024400000144052465B463A
:103680002046294602F064FB02F0E8FC064602F000
:10369000CBF952465B4602F031FA08F101080B46BD
:1036A00002462946204602F071F806F13003C8456B
:1036B00007F8013B00F0DB82B94B002202F01EFA52
:1036C0000022002304460D4602F080FC0028D5D0DD
:1036D0000E9DDDF818A001353E46B0E00C9A002A98
:1036E00040F0D28000230F9D0B9E0C931F4656B1D5
:1036F000002C08DDA6420B9A3346A8BF2346D21AF7
:103700000B92F61AE41A0F9B53B10C9B13B1002DC8
:1037100040F0E88251460F9A039801F089FA8246F8
:103720000398012101F0A0F98146BBF1000F40F0A0
:10373000B681289B012B40F3CC810120204410F05E
:103740001F0000F09A80C0F12003042B40F3DA81BF
:103750000B9BC0F11C0003440B93064404440B9BD9
:10376000002B05DD514603981A4601F0BBFA82464C
:10377000002C05DD49460398224601F0B3FA814644
:10378000109B002B40F07081069B002B40F348817A
:103790000C9B002B40F0A4800E9D0135DDF82880A5
:1037A000069CDDF80CB0012607E0514600230A22F2
:1037B000584601F0B7F80136824649465046FFF7B1
:1037C0000BFCA64200F1300308F8013BEDDB069A42
:1037D000002AC8BF16460A9AD8BF012602EB060B7C
:1037E0000024514601220398049301F07BFA4946D4
:1037F000824601F0EFFA002840F3E3810A9A02E0E2
:103800005A4500F0E9815E460BF1FF3B16F8013C9A
:10381000392BF5D001338BF80030DDF80C804946A8
:10382000404601F075F857B12CB1BC4203D0214697
:10383000404601F06DF80398394601F069F80398A5
:10384000514601F065F8002333702A9B1D602C9BC4
:10385000002B3FF494AC0A981E601FB0BDE8F08FB7
:10386000584602F0E1F832463B4602F0AFFB002832
:103870007FF4DCAC0BF1FF3BD8E41C230B9A1A4419
:103880000B921E441C446AE7289A012A40F3A9813E
:10389000069A0F9B551EAB42C0F26B81002AA3EB28
:1038A000050580F2DD820B9B069A9E1A0398012182
:1038B00001F0DAF807461AE7C3F1200306FA03F02D
:1038C00081E40125E4E43946002303980A2201F04B
:1038D00029F8189B002B074640F3EF820E950693BC
:1038E000002E00F33F81BBF1000F40F0DF81B846AE
:1038F0000A9E069C731E1C44049B0C9403F0010357
:10390000039C0F9349465046FFF766FB39468346B2
:10391000504601F05FFA424649460546204601F00E
:1039200079FAC26801460BF13003002A3AD10890B7
:1039300050460B9301F04EFA08990690204600F08D
:10394000E7FF069A0B9B002A5AD1289A1AB90F9AB8
:10395000002A00F09A82002D45DB0C9AB346B24251
:103960000BF8013B00F0B981514600230A222046A2
:1039700000F0D8FF4745824639464FF000034FF02C
:103980000A02204636D000F0CDFF4146074600230C
:103990000A22204600F0C6FF5E468046B2E700BF1E
:1039A000000024400398069300F0B2FF002D069B10
:1039B00006DB049A289902F001020D432A432AD11A
:1039C000514601220398049301F08CF9494682463E
:1039D00001F000FA0028049B40F3E880392B00F046
:1039E0002F820BF131030E9D06F8013B3C46013559
:1039F000474612E700F096FF5E460746804681E79D
:103A0000002DC0F27D8228990D430F990D4300F0DF
:103A10007782002AA1DD392B00F012820133E2E720
:103A2000289B022B7FF7B4AE069B002B40F01D8134
:103A300049460522039800F075FF0146814650462D
:103A400001F0C8F9002840F310810A9E0E9D312331
:103A500006F8013B013503984946013500F058FF4F
:103A6000002F7FF4E8AEEAE64946504601F0B2F98D
:103A70000028BFF689AE5146002303980A2200F0C1
:103A800051FF0E9B5D1E0C9B8246002B7FF41BAFEB
:103A9000189B002B40F3FF810E9D06937EE60146A6
:103AA0005A46039801F0C4F8289B012B81466CDD2F
:103AB0004FF0000BD9F8103009EB8303186900F0C0
:103AC00081FFC0F1200039E6924B0A930333FFF7E0
:103AD000FABB049B002B7FF430AEDDE90412C2F385
:103AE0001303002B7FF429AE8B4B134023B10B9BA8
:103AF00001330B9301340123BBF1000F40F0AE8181
:103B00009B461AE63FF42BAEC0F13C03B6E6012318
:103B10000C93299B0E9A134418930133012B1E46D4
:103B20000693B8BF0126172E40F3D5810122042346
:103B30005B0003F11400B042114602F10102F7D913
:103B4000039BD96311E401230C93299B002B33DDE4
:103B5000189306931E46E6E700230C93D9E700234B
:103B60000C93F2E739460398324601F0BBF807465A
:103B7000B9E60F9B069A0F95EB1A9B440B9B1E46CA
:103B8000134414440B93002590E6049B002B8FD123
:103B9000DDE90401C1F313030A46002B88D1A3E732
:103BA000DDE908230227CDE912230BE47FF41BAFE4
:103BB000DA077FF518AF11E7012329930693FFF782
:103BC000CFBB03D1049BDB073FF518AE5E461BF865
:103BD000013D302BFAD020E60A9A312301351370CB
:103BE0001BE6119A002A00F0F98003F233430B9A86
:103BF0000F9D16461A441C440B9257E6C8F1010368
:103C000004460B931090FFF79BBB00F0EB800E9BDC
:103C1000424D5E4206F00F0305EBC303D3E90023D8
:103C2000DDE9080101F06AFF3511CDE9120100F06C
:103C30004D813B4E0023022780468946E80709D57F
:103C4000D6E900234046494601F058FF0137804637
:103C5000894601236D1006F10806EFD1002B7FF491
:103C6000CAABDDE91289FFF7C6BB0A9ECAE4DDF8DC
:103C700018A00E9D02460B4601F08AFD02460B4637
:103C8000CDE906230135DDE90423A84602F0C6F993
:103C900040B9DDE90423DDE9060102F097F918B126
:103CA000F10701D50A9A4AE43E46C8E579680398C7
:103CB00000F008FE0546002800F026813B6902332B
:103CC0009A0007F10C010C3001F004FC039829461E
:103CD000012201F007F880460AE60E9D3C460135B8
:103CE00047467EE5DDF80C8039462A46404600F01E
:103CF0009FFF524601460746404600F0E3FE51460C
:103D00008246404600F004FE0F9B5B1B0F933FF47E
:103D100007ADFFE47C6400080000F07FA0650008A8
:103D200078650008DDE9140101F0E8FE0A9B1F70C8
:103D3000129B012BCDE90C0100F0C680129F0A9B5B
:103D4000CDF844B01F447C4B00224046494601F068
:103D5000D5FE8946804602F081F9834601F064FE73
:103D60000BF1300B02460B464046494601F00EFD72
:103D700006F801BBB74280468946E4D1DDF844B07D
:103D80006E4B0022DDE90C0101F002FD02460B46FC
:103D90004046494602F042F9002867D1DDE90C238C
:103DA0006649002001F0F2FC02460B4640464946B7
:103DB00002F016F948B91D9B002BFFF693AC0E9B41
:103DC0000E2B3FF78FACFFF7FCBB3E46013F16F8CA
:103DD000013C302BF9D0199D013530E51C9BC3F116
:103DE000360304E7DDE908890227FFF704BB069BD9
:103DF000002B3FF4B8AB189B002B7FF7D9AB0E9A82
:103E00001293013A4C4B199240460022494601F068
:103E100075FE80468946781C01F006FE42464B46F8
:103E200001F06CFE464B002201F0B2FC0646A1F107
:103E30005077FFF701BB08F101083123FFF786BB7C
:103E40000E9D0A9AB34639233C460BF8013B0135D7
:103E50004746D8E44FF000094F46F6E59B4629E671
:103E60000B9B1E46134414440B931FE5199B0A9A9F
:103E700003F10108FFF763BBDDF858A0ABE7DDE90C
:103E80001AB4DDF858A0FFF793BB392BD8D0002D1A
:103E90003FF7A7ADA7E5289B022B0ADC189B0693EA
:103EA00049460E9DFFF798F80A9A00F13003137007
:103EB0008DE4189B06930E95B6E5289B022BF8DC43
:103EC000189B0E9506930BE5374659E7DDE91289F5
:103ED0000227FFF790BA039B0021D963FFF745BA89
:103EE000039B0025DD632946184600F0EBFC0A9091
:103EF000A8B9144B1448002240F2AF11FCF700FBA4
:103F0000002A7FF770AD5BE50E4B0F482A4640F262
:103F1000EF21FCF7F5FA0D4B0A93FFF730B9039B3D
:103F20000A9A9A634FF0FF330122299518930C9255
:103F30000693FFF73DBB00BF000024400000E03FB8
:103F400000001C408064000894640008706400084D
:103F50002DE9F84306460820894601F0ADFADFF85E
:103F60009C800546304600F0A1FCD8F808305F6818
:103F700027F00307A7F11104A4EB09042C44B4FBB8
:103F8000F5F4013C05FB04F4A54208DC00213046B1
:103F900001F080FAD8F808303B44984205D030460A
:103FA00000F08AFC0020BDE8F8836142304601F051
:103FB00071FA01300FD0124AD8F808303F1B47F091
:103FC00001075F60136830461B1B136000F074FC30
:103FD0000120BDE8F8830021304601F05BFAD8F8F3
:103FE0000820831A0F2BDADD43F001035360054BE1
:103FF00003491B68C01A0860D1E700BFB002002067
:1040000094080020A402002000297CD0F8B50C46BA
:10401000064600F04BFC54F8043C774FA4F1080529
:1040200023F001016818D7F808C04268844522F0DF
:10403000030200F08380DB07426000EB020C33D404
:1040400054F8084CDCF804302D1B2144AC6807F10F
:10405000080C644503F0010364D0D5F80CE0C4F803
:104060000CE0CEF80840002B00F0818041F0010305
:104070006B600160B1F5007F22D27868CB08012225
:10408000490901338A40024357F833107A6007EB3D
:10409000C302083AC5E9021247F83350CD603046F2
:1040A000BDE8F84000F008BCDCF80430DB072BD595
:1040B00041F00103B1F5007F44F8043C0160DCD31A
:1040C000B1F5206F4FEA512353D28B0903F1390028
:1040D00003F13802C300F818FB580838984203D19E
:1040E00063E09B68984204D05A6822F003028A4237
:1040F000F7D8D868C5E902308560DD603046BDE894
:10410000F84000F0D9BB7047114407F1080C8368F0
:1041100063453FD0C268DA60936041F001036B6091
:104120006950A7E7002B61D10A44D0E90213CB60A4
:10413000996042F001036B60AA50B0E70A44D907C6
:1041400007D454F8083CED1A1A44D5E90213CB60A1
:10415000996042F001036B60284BBD601B6893427D
:104160009DD8274B30461968FFF7F2FE97E71144B8
:10417000CDE7142B08D9542B1FD80B0B03F16F007C
:1041800003F16E02C300A6E703F15C0003F15B02DA
:10419000C300A0E741F001033D617D61C5F808C09F
:1041A000C5F80CC06B60695079E7796892100124FA
:1041B00004FA02F20A437A609CE7B3F5AA7F06D8B4
:1041C000CB0B03F1780003F17702C30083E740F2E1
:1041D0005452934206D88B0C03F17D0003F17C020C
:1041E000C30078E74FF47E737E2274E741F0010349
:1041F0006B60016053E700BFB0020020A8020020FE
:10420000C40800202DE9F04F01F10B05162D85B0F3
:10421000064624D8102900F2B18000F047FB102593
:1042200018234FF0020CBA4F3B44A3F108025C681C
:10423000944200F022816368E268A16823F00303DE
:10424000CA602344304691605A6842F001025A60C5
:10425000083400F031FB204605B0BDE8F08F35F0A2
:10426000070500F18B80A94200F2888000F01EFB58
:10427000B5F5FC7FC0F073816B0A00F08380042BDE
:1042800000F22281AB0903F1390C03F1380E4FEA39
:10429000CC039F4F3B44A3F108005C68A04207D1C8
:1042A0000DE0002AE16880F2E280884207D00C46E7
:1042B000636823F003035A1B0F2AF2DDF446DFF88C
:1042C00054823C69444500F0BF80636823F00309D1
:1042D000A9EB05030F2B00F34781002BC7E90488E6
:1042E00080F23181B9F5007FD7F804E080F0CC800E
:1042F0004FEAD90101314FEA5919012303FA09F3B1
:1043000057F83120A2604EEA030E07EBC103083BC9
:10431000E360C7F804E047F83140D4604FEAAC03EB
:1043200001209840704534D810EA0E0F07D12CF0C8
:10433000030C400010EA0E0F0CF1040CF9D007EB4F
:10434000CC0A5246E146D1680EE04B6823F00303E5
:10435000A3EB050EBEF10F0F0C46C96800F3C18038
:10436000BEF1000F80F2E2808A42EED109F101092C
:1043700019F0030F02F10802E5D121E10C233360AB
:10438000002468E74FF400734FF0400C4FF03F0EED
:104390007FE7BC68636823F00309A94503D3A9EB51
:1043A00005030F2B53DC5C4BDFF870B11B68082052
:1043B00003F1100801F080F8DBF8003001900133C0
:1043C000A84404EB090205D008F1FF3880444342B9
:1043D00003EA080841463046029201F05BF8B0F16A
:1043E000FF3F029A824600F0DC80824200F2D780D2
:1043F0004B4B01991868404401F1FF311860844625
:1044000040F0FC801AEA010F40F0F880D7F808A0CD
:10441000C84448F00102CAF80420424B196881429E
:1044200038BF1860404B1968814238BF1860544645
:1044300022F00308A845A8EB050301D30F2B06DCE7
:10444000304600F039FA9BE7D7F804E066E76219D6
:1044500043F0010345F0010565603046BA605360E2
:1044600000F02AFA0834204605B0BDE8F08FA268B3
:104470002344D16030468A60E6E6DC68A3427FF4DC
:10448000DAAE0CF1020C1AE7B9F5206F4FEA5922A7
:104490007ED3142A00F2158102F15C03DB005B324B
:1044A000F918FB580839994203D1F0E09B6899420A
:1044B00004D05A6822F003024A45F7D8D968C4E903
:1044C00002318C60DC6029E7142B6DD9542B00F28B
:1044D00001812B0B03F16F0C03F16E0E4FEACC033D
:1044E000D7E63046A668621945F001056560F160BF
:1044F0008E604EF00101C7E90422C2F80880C2F8BC
:104500000C80516044F803E000F0D6F90834A2E6CC
:10451000B0020020B8020020C4080020A40200203D
:1045200094080020C0080020BC0800202344304626
:104530005A6842F001025A6054F8083FD9608B6013
:1045400000F0BAF987E6A1443046D9F8043043F0C8
:104550000103C9F80430083400F0AEF97BE64FEAF5
:10456000D50C05F108035EE6621943F0010145F040
:10457000010565603046C7E90422C2F80880C2F828
:104580000C80516044F8093000F096F9083462E676
:104590004FEA991202F13903DB00383280E7BC425E
:1045A00024D0BC68626843E703F15C0C03F15B0E46
:1045B0004FEACC036DE65AF80839534540F0D880ED
:1045C0001CF0030F0CF1FF3CF5D17B6823EA0003DC
:1045D0007B60400098423FF6DCAE18B9D9E6400057
:1045E00009F104091842FAD0CC46A8E6614B0199BA
:1045F000186808EB000C0139C3F800C0DBF80000B4
:1046000001301BBFAAEB02026244CBF800A01A6083
:104610001AF00702CDE9022342D0C2F10802019B41
:104620009244D044134408EA01001A1A02EA010B2A
:104630005946304600F02EFF421C039B7AD0A0EB77
:104640000A0000EB0B081868C7F808A048F0010240
:104650005844BC42CAF8042018603FF4DEAEB9F1F9
:104660000F0F42D96168A9F10C0222F0070201F094
:10467000010111436160A1184FF0050C0F2AC1F828
:1046800004C0C1F808C04AD8DAF80420C5E6921080
:10469000012000FA02F24EEA020EC7F804E00EE72B
:1046A000019B0AEB08020A409A1A02EA010B5946DA
:1046B000304600F0EFFE431C039BC0D1DDF808B08C
:1046C000C1E7542A15D84FEA193202F16F03DB0013
:1046D0006E32E5E6B3F5AA7F15D8EB0B03F1780C43
:1046E00003F1770E4FEACC03D3E50123CAF8043077
:1046F000A6E6B2F5AA7F25D84FEAD93202F17803AF
:10470000DB007732CCE640F25452934225D8AB0C12
:1047100003F17D0C03F17C0E4FEACC03B9E5304682
:1047200004F108010193FFF76FFC019BD7F808A083
:104730001868A9E7029A083A9044A8EB0A084FF0D3
:10474000000B80E740F254539A420DD84FEA994249
:1047500002F17D03DB007C32A2E64FF47E734FF062
:104760007F0C4FF07E0E94E54FF47E737E2297E629
:104770007B682EE79408002082B049B15AB16BB132
:1047800013780B601278101E18BF012002B070471A
:1047900001A9002AF3D1104602B070476FF0010062
:1047A000F4E700BF2DE9F04F9368176883B0924695
:1047B000002B74D04FF0000B8B680A6881460C46C2
:1047C0005D4645E0B4F90C3013F4906F2CD0D4E979
:1047D0000401161A01EB410202EBD272711C521055
:1047E0002944914292BF904688460A465B0539D5D6
:1047F00011464846FFF706FD019000283DD032469D
:10480000216900F067FEA289019B22F4906242F0C8
:104810008002A2819819A8EB0606A660C4F814804D
:1048200023612060A8462E463246594600F0B2FD6C
:10483000DAF80810A3682268A3EB08033244491B86
:10484000A3602260CAF8081049B3D7E900B5083759
:1048500098461046002DF8D09D421E46B2D2A8467A
:104860002E46E1E70146484600F0E4FB03460028F7
:10487000D0D121694846FFF7C7FBA3890C2243F03A
:104880004003C9F800204FF0FF30A381002200232D
:10489000CAF80820CAF8043003B0BDE8F08F002041
:1048A0000023CAF8043003B0BDE8F08F0148FEF7DA
:1048B000CFBA00BF900800200148FEF7CBBA00BF76
:1048C00090080020436C70B505460C464BB153F878
:1048D000240080B1026843F824200023C3600361F0
:1048E00070BD2122042100F017FF034668640028F0
:1048F000EDD1002070BD012101FA04F6721D920075
:10490000284600F009FF0028F3D0C0E90146E4E79B
:1049100031B1436C4A6853F82200086043F8221012
:10492000704700BF2DE9F0410D6907460E461C4651
:1049300001F1140E0020DEF800108BB202FB0343DD
:104940004FEA134C090C02FB01CC01309BB203EB84
:104950000C4385424EF8043B4FEA1C44EBDC3CB16F
:10496000B368AB4207DD06EB850301355C61356159
:104970003046BDE8F081716838460131FFF7A2FF8B
:104980008046A8B13269023206F10C0192000C3067
:1049900000F0A0FD7B6C726853F82210316043F880
:1049A0002260464606EB850301355C613561DFE731
:1049B000024B03484246BA21FBF7A2FD806400087F
:1049C00000650008B0F5803F034636BF03040020B1
:1049D0001020B3F1807F3CBF1B020830B3F1805F31
:1049E0003CBF1B010430B3F1804F03D3002B06DB27
:1049F000013070479B0003D45B0003D42020704734
:104A00000230704703307047036813F00702014615
:104A100007D0DA071FD4980721D55B080B60012067
:104A2000704798B2A0B11046DAB20AB908301B0A32
:104A30001A0704BF1B0904309A0704BF9B08023001
:104A4000DA0703D45B0800F1010006D00B60704761
:104A50001B0C1020E8E700207047202070479B08BF
:104A60000B600220704700BF38B5436C04460D460A
:104A70004BB15868B0B102685A6000220123456109
:104A8000C260036138BD2122042100F045FE0346C7
:104A900060640028EDD1094B0948002240F245111D
:104AA000FBF72EFD1C220121204600F035FE0028D8
:104AB000F1D00122022342608360DEE780640008B7
:104AC000006500082DE9F04FD1F810801569A84560
:104AD00085B00E46924605DB2A46534645468A4631
:104AE00090461E46DAF80830DAF8041005EB0804A0
:104AF000A342B8BF0131FFF7E5FE8446002800F06D
:104B00008B8000F1140707EB840E774505D23B46F6
:104B1000002243F8042B9E45FBD8143606EB880888
:104B20000AF11409464509EB850566D2A5EB0A038F
:104B3000153B23F003030AF1150A043355452CBF36
:104B40009B464FF0040BCDF808E00394AE46E246D6
:104B500005E0090C2AD1B04507F104074AD956F8F7
:104B6000041B8DB2002DF4D0CC463C4600230196A8
:104B70005CF8040B216886B28AB2000C05FB0622A1
:104B8000090C1A4405FB001101EB124192B242EAF2
:104B90000142E64544F8042B4FEA1143E8D8019E50
:104BA00047F80B3056F8041C090CD4D03B6800229F
:104BB00048461D463C469446028801FB02C202EB71
:104BC00015429BB243EA024344F8043B50F8043BCD
:104BD00025684FEA134CABB201FB0C3303EB1243D5
:104BE00086454FEA134CE7D8B04547F80B3007F13C
:104BF0000407B4D8DDE902E4D446002C02DC05E069
:104C0000013C03D05EF8043D002BF9D06046CCF89F
:104C1000104005B0BDE8F08F034B044862464FF4E6
:104C2000B171FBF76DFC00BF8064000800650008EF
:104C300012F003032DE9F041144607462CD10D462E
:104C4000A4101CD03E6C86B3E3074FF0000806D4D6
:104C5000641014D03068A8B10646E307F8D5324690
:104C600029463846FFF72EFF35B17B6C696853F84B
:104C700021202A6043F8215064100546EAD12846D5
:104C8000BDE8F081324631463846FFF71BFF306001
:104C9000C0F800800646E0E7013B0F4A52F82320A7
:104CA0000023FFF73FFE0546CAE701213846FFF71C
:104CB00009FE064640B1012340F27122C0E90432E8
:104CC000002338640360BFE7044B0548324640F2D6
:104CD0004511FBF715FC00BF6C65000880640008F7
:104CE000006500082DE9F0470C4690462769A36847
:104CF000496807EB62177D1C9D4206464FEA621920
:104D000004DD5B009D4201F10101FADC3046FFF752
:104D1000D9FD8446002851D0B9F1000F00F11400EC
:104D20000EDD09F105024FEA820E03460CEB82020A
:104D3000002143F8041B9342FBD1AEF11403184445
:104D4000216904F1140318F01F0803EB81012DD031
:104D5000C8F1200986464FF0000A1A6802FA08F2E4
:104D600042EA0A024EF8042B53F8042B994222FA25
:104D700009FAF2D80B1B153B23F00303043304F1AB
:104D80001502914238BF042340F803A0BAF1000F86
:104D900000D13D46736C6268CCF8105053F8221075
:104DA0002160604643F82240BDE8F087043853F89C
:104DB000042B40F8042F9942F9D8EAE7034B044842
:104DC00062464FF4EF71FBF79BFB00BF8064000865
:104DD000006500080B6984460069C01A15D10CF102
:104DE000140C14310CEB830210B401EB830301E0CB
:104DF000944508D252F8044D53F8041D8C42F7D064
:104E000004D24FF0FF3010BC70477047012010BC37
:104E1000704700BF2DE9F04F13690F69FF1A002F8B
:104E200083B00D46904615D101F11406143202EB01
:104E3000830206EB830301E09E4276D253F8044DD1
:104E400052F8041D8C42F7D006D22B460127454666
:104E5000984601E0F9DB00276968FFF733FD8146DA
:104E6000002876D02E69C760D8F8100005F1140B21
:104E700008F1140E09F1140A05F110010EEB80007F
:104E80000BEB860257464FF0000CCDF804B05EF8ED
:104E9000044B51F8045F1FFA84FBABB2A3EB0B0386
:104EA000240C6344C4EB154404EB23449BB243EA53
:104EB0000443704547F8043B4FEA244CE7D8A0EB85
:104EC0000801153989084C1CDDF804B008F11508F3
:104ED000A400404538BF04240BEB0405AA42544407
:104EE00030D92746284650F8043B1CFA83FE190C9B
:104EF000634401EB2E419BB243EA0143824247F8EF
:104F0000043B4FEA214CEED8013A521B22F0030237
:104F1000144423B954F8043D013E002BFAD048460E
:104F2000C9F8106003B0BDE8F08F0021FFF7CAFC9C
:104F30008146A8B101220023C0E90423484603B0FA
:104F4000BDE8F08F8900404538BF00210AEB01041D
:104F5000DFE7074B07484A4640F24521FBF7D0FA06
:104F6000034B04484A4640F23721FBF7C9FA00BF19
:104F70008064000800650008F0B5012183B0164682
:104F80001F46FFF79FFC0546002847D0C7F30A5489
:104F9000C7F313030CB143F48013002E019314D113
:104FA00001A8FFF731FD019B6B61012220302A61CE
:104FB00014B3089BA4F2334404441C60099BC0F161
:104FC00035001860284603B0F0BD68460096FFF72C
:104FD0001BFD019B00B30099C0F1200203FA02F20D
:104FE000C34001930A43002BC5E905230CBF0122EE
:104FF00002222A61002CDCD105EB8201A0F23243AF
:10500000086908990B60FFF7DDFC099BC0EB4210B3
:105010001860284603B0F0BD009AE4E7034B04484B
:105020002A4640F20F31FBF76BFA00BF806400089C
:10503000006500082DE9F84F1646002900F096801B
:105040000C46804606F10B05FFF730FC54F8041CB3
:10505000162DA4F1080921F0030758D81025AE42F7
:1050600058D8AF4260DABE4B9A6809EB070C62452C
:10507000DCF8040000F0908020F0010363445B68DA
:10508000DA0768D420F003003B189D4247DDCB07C8
:1050900012D454F8083CA9EB030BDBF8043023F0DE
:1050A0000302104400EB070A554540F3F68007EB76
:1050B000020A554540F3CC8031464046FFF7A2F83E
:1050C0000646002800F0208154F8043C23F0010338
:1050D0004B44A0F10802934200F0B4803A1F242A06
:1050E00000F2D780132A00F2A280034622461168FC
:1050F00019605168596092689A6021464046FEF7EF
:1051000083FF4046FFF7D8FB3046BDE8F88F35F007
:105110000705A4D50C23C8F80030002618E01F4668
:10512000DCE90223D3609A60D9F804307A1B0F2A95
:1051300003F0010309EB07001DD83B43C9F8043015
:10514000436843F0010343604046FFF7B5FB264642
:105150003046BDE8F88FC907AED454F8083CA9EB37
:10516000030BDBF8043023F00302A0E7BDE8F84F9F
:105170001146FFF747B809EB05012B4342F0010246
:10518000C9F804304A60436843F0010343600831C2
:105190004046FEF739FFD7E720F00300C21905F1BA
:1051A000100C624580F29180CA0785D454F8082C0F
:1051B000A9EB020BDBF8042022F00302104400EB01
:1051C000070AD4453FF773AF5E46DBF80C1056F87C
:1051D000080F3A1F242AC160886000F2AE80132AAB
:1051E00040F2A9802168CBF808106168CBF80C1058
:1051F0001B2A00F2A88008340BF11002216811600C
:1052000061685160A16891600BEB0501AAEB050292
:1052100042F0010299604A60DBF8043003F00103B8
:105220002B434046CBF80430FFF746FB90E723685A
:105230000360636843601B2A3CD804F1080200F154
:10524000080354E750F8043C23F003031F446BE7C2
:105250003A1F5E46DBF80C3056F8081F242ACB6054
:10526000996022D8132A1ED92368CBF808306368C6
:10527000CBF80C301B2A3BD808340BF11003226802
:105280001A6062685A60A2689A6034465746D946E6
:105290004AE7214600F07EF82FE7DCE902133A1FC7
:1052A000CB609960D5E73346E9E72146304600F008
:1052B00071F8EAE7A3688360E368C360242A27D013
:1052C00004F1100200F1100311E709EB05019960E8
:1052D000531B43F001034B6054F8043C03F00103FB
:1052E0002B43404644F8043CFFF7E6FA26462FE7F6
:1052F000A368CBF81030E368CBF81430242A10D020
:1053000010340BF11803BAE74046FFF7D5FA04E76B
:10531000236903616169416104F1180200F1180316
:10532000E5E62369CBF818306369CBF81C301834F4
:105330000BF12003A3E7324660E72146304600F038
:1053400029F8074B60E7A168CBF81010E168CBF8AB
:105350001410242A06D010340BF118024EE700BFB7
:10536000B00200202269CBF818206269CBF81C201B
:1053700018340BF1200241E749B1FF2A02D80A7024
:10538000012070478A2303604FF0FF3070470846C2
:10539000704700BF88420ED98B1883420BD900EBAF
:1053A000020C002A6ED0624613F801CD02F801CD3E
:1053B0009942F9D170470F2A0FD8034602F1FF3CFA
:1053C000002A5FD00CF1010C013B8C4411F8012B39
:1053D00003F8012F6145F9D1704740EA01039B07AB
:1053E00051D1A2F1100370B501F1200C23F00F058B
:1053F00001F1100E00F11004AC441B095EF8105CC2
:1054000044F8105C5EF80C5C44F80C5C5EF8085CD8
:1054100044F8085C5EF8045C44F8045C0EF1100E7D
:10542000E64504F11004E9D1013312F00C0F01EB51
:10543000031102F00F0400EB031328D0043C24F006
:1054400003064FEA940C1E441C1F8E465EF8045B54
:1054500044F8045FB442F9D10CF1010402F00302F4
:1054600003EB840301EB840102F1FF3C4AB10CF130
:10547000010C013B8C4411F8012B03F8012F61450D
:10548000F9D170BD704702F1FF3C03469AE722460E
:10549000EAE700BF38B5074D0022044608462A60F7
:1054A000FBF762F8431C00D038BD2B68002BFBD003
:1054B000236038BDC4060020082802D14FF4805074
:1054C000704708B5FBF76CFC162303604FF0FF3004
:1054D00008BD00BF844641EA000313F003036DD109
:1054E000403A41D351F8043B40F8043B51F8043BA7
:1054F00040F8043B51F8043B40F8043B51F8043BAE
:1055000040F8043B51F8043B40F8043B51F8043B9D
:1055100040F8043B51F8043B40F8043B51F8043B8D
:1055200040F8043B51F8043B40F8043B51F8043B7D
:1055300040F8043B51F8043B40F8043B51F8043B6D
:1055400040F8043B51F8043B40F8043B51F8043B5D
:1055500040F8043B51F8043B40F8043B51F8043B4D
:1055600040F8043B403ABDD2303211D351F8043BED
:1055700040F8043B51F8043B40F8043B51F8043B2D
:1055800040F8043B51F8043B40F8043B103AEDD29C
:105590000C3205D351F8043B40F8043B043AF9D2ED
:1055A000043208D0D2071CBF11F8013B00F8013BC0
:1055B00001D30B8803806046704700BF082A13D3CD
:1055C0008B078DD010F003038AD0C3F10403D21AE5
:1055D000DB071CBF11F8013B00F8013B80D331F819
:1055E000023B20F8023B7BE7043AD9D3013A11F899
:1055F000013B00F8013BF9D20B7803704B78437004
:105600008B788370604670472DE9F04F89B0DDE9F3
:10561000137A86461E46002F53D01568002955D0B0
:10562000129B002B62D0741E2EB3CDE900E1DDF891
:1056300048B00291043D002603920AE0019BF3B9B1
:105640002868002831D0DC4552D2013C631C6646F4
:1056500011D055F8042F0098DAF8E0C03B4605A9B0
:10566000D7E90098E047421C34D000EB060CDC453B
:10567000E4D9C7E90098304609B0BDE8F08F0028AA
:105680000CDD029B18445A1E05A900F1FF3E11F8DB
:10569000013B02F8013F9645F9D10290039B28682F
:1056A0001A6804321A600028CDD10199039A01B119
:1056B00010600CF1FF36002230463A6009B0BDE8B8
:1056C000F08F156800F586770029A9D14FF0FF33D8
:1056D0001293A8E7DDF800E006468A210022304652
:1056E000CEF800103A6009B0BDE8F08F129EC2E714
:1056F0006646C0E710B584B0054C06980090079840
:105700000190044800680294FFF77EFF04B010BDCA
:10571000380100201000002038B5A1FB021454BB52
:10572000FEF770FD054650B350F8042C22F003023A
:10573000043A242A10D8132A13D91B2A046044607F
:1057400016D9242A8460C46011BF00F1100200F150
:1057500018020461446105E02146FDF7E9FA284694
:1057600038BD02460023136053609360284638BD5D
:1057700000F10802F6E7FBF713FB0C23036000259A
:10578000284638BD81F0004102E000BF83F00043AD
:1057900030B54FEA41044FEA430594EA050F08BFCC
:1057A00090EA020F1FBF54EA000C55EA020C7FEA90
:1057B000645C7FEA655C00F0E2804FEA5454D4EB0D
:1057C0005555B8BF6D420CDD2C4480EA020281EAD7
:1057D000030382EA000083EA010180EA020281EA0F
:1057E0000303362D88BF30BD11F0004F4FEA013161
:1057F0004FF4801C4CEA113102D0404261EB410170
:1058000013F0004F4FEA03334CEA133302D05242F5
:1058100063EB430394EA050F00F0A780A4F10104B1
:10582000D5F1200E0DDB02FA0EFC22FA05F28018EB
:1058300041F1000103FA0EF2801843FA05F35941D1
:105840000EE0A5F120050EF1200E012A03FA0EFC50
:1058500028BF4CF0020C43FA05F3C01851EBE3717A
:1058600001F0004507D54FF0000EDCF1000C7EEB97
:1058700000006EEB0101B1F5801F1BD3B1F5001FD5
:105880000CD349085FEA30004FEA3C0C04F10104F4
:105890004FEA445212F5800F80F09A80BCF1004F1D
:1058A00008BF5FEA500C50F1000041EB045141EA9F
:1058B000050130BD5FEA4C0C404141EB0101013C68
:1058C00028BFB1F5801FE9D291F0000F04BF014657
:1058D0000020B1FA81F308BF2033A3F10B03B3F129
:1058E00020020CDA0C3208DD02F1140CC2F10C02B9
:1058F00001FA0CF021FA02F10CE002F11402D8BF17
:10590000C2F1200C01FA02F120FA0CFCDCBF41EAE2
:105910000C019040E41AA2BF01EB0451294330BDB1
:105920006FEA04041F3C1CDA0C340EDC04F114048E
:10593000C4F1200220FA04F001FA02F340EA030065
:1059400021FA04F345EA030130BDC4F10C04C4F1AB
:10595000200220FA02F001FA04F340EA030029468B
:1059600030BD21FA04F0294630BD94F0000F83F4D5
:10597000801306BF81F480110134013D4EE77FEAB8
:10598000645C18BF7FEA655C29D094EA050F08BF04
:1059900090EA020F05D054EA000C04BF19461046E5
:1059A00030BD91EA030F1EBF0021002030BD5FEA29
:1059B000545C05D14000494128BF41F0004130BD51
:1059C00014F580043CBF01F5801130BD01F00045A5
:1059D00045F0FE4141F470014FF0000030BD7FEA18
:1059E000645C1ABF194610467FEA655C1CBF0B4613
:1059F000024650EA013406BF52EA033591EA030F2A
:105A000041F4002130BD00BF90F0000F04BF002121
:105A1000704730B54FF4806404F132044FF0000554
:105A20004FF0000150E700BF90F0000F04BF0021CD
:105A3000704730B54FF4806404F1320410F0004533
:105A400048BF40424FF000013EE700BF42004FEA2E
:105A5000E2014FEA31014FEA02701FBF12F07F43AB
:105A600093F07F4F81F06051704732F07F4208BF62
:105A7000704793F07F4F04BF41F40021704730B569
:105A80004FF4607401F0004521F000411CE700BFB5
:105A900050EA010208BF704730B54FF000050AE038
:105AA00050EA010208BF704730B511F0004502D539
:105AB000404261EB41014FF4806404F132045FEA3B
:105AC000915C3FF4D8AE4FF003025FEADC0C18BFE4
:105AD00003325FEADC0C18BF033202EBDC02C2F1D6
